{
  "contractName": "Common",
  "abi": [
    {
      "constant": false,
      "inputs": [
        {
          "internalType": "address",
          "name": "apt",
          "type": "address"
        },
        {
          "internalType": "address",
          "name": "urn",
          "type": "address"
        },
        {
          "internalType": "uint256",
          "name": "wad",
          "type": "uint256"
        }
      ],
      "name": "daiJoin_join",
      "outputs": [],
      "payable": false,
      "stateMutability": "nonpayable",
      "type": "function"
    }
  ],
  "bytecode": "0x608060405234801561001057600080fd5b50610298806100206000396000f3fe608060405234801561001057600080fd5b506004361061002b5760003560e01c8063c56167c614610030575b600080fd5b61009c6004803603606081101561004657600080fd5b81019080803573ffffffffffffffffffffffffffffffffffffffff169060200190929190803573ffffffffffffffffffffffffffffffffffffffff1690602001909291908035906020019092919050505061009e565b005b8273ffffffffffffffffffffffffffffffffffffffff1663f4b9fa756040518163ffffffff1660e01b8152600401602060405180830381600087803b1580156100e657600080fd5b505af11580156100fa573d6000803e3d6000fd5b505050506040513d602081101561011057600080fd5b810190808051906020019092919050505073ffffffffffffffffffffffffffffffffffffffff1663095ea7b384836040518363ffffffff1660e01b8152600401808373ffffffffffffffffffffffffffffffffffffffff1673ffffffffffffffffffffffffffffffffffffffff16815260200182815260200192505050600060405180830381600087803b1580156101a757600080fd5b505af11580156101bb573d6000803e3d6000fd5b505050508273ffffffffffffffffffffffffffffffffffffffff16633b4da69f83836040518363ffffffff1660e01b8152600401808373ffffffffffffffffffffffffffffffffffffffff1673ffffffffffffffffffffffffffffffffffffffff16815260200182815260200192505050600060405180830381600087803b15801561024657600080fd5b505af115801561025a573d6000803e3d6000fd5b5050505050505056fea265627a7a723158207abd238dd13e3c0508ad6d2d1242d0b53c4d7d37ad9e4965381c3ca99ba304c664736f6c63430005100032",
  "source": "pragma solidity ^0.5.15;\n\nimport \"./DaiJoinLike.sol\";\n\n// !!!!!!!!!!!!!!!!!!!!!!!!!!!!!!!!!!!!!!!!!!!!!!!!!!!!!!!!!!!!!!!!!!!!!!!!!!!!!!!!!!!!!!!!!!!!!!!!!!!!!!!!!!!!!!!!!!\n// WARNING: These functions meant to be used as a a library for a DSProxy. Some are unsafe if you call them directly.\n// !!!!!!!!!!!!!!!!!!!!!!!!!!!!!!!!!!!!!!!!!!!!!!!!!!!!!!!!!!!!!!!!!!!!!!!!!!!!!!!!!!!!!!!!!!!!!!!!!!!!!!!!!!!!!!!!!!\n\ncontract Common {\n    uint256 constant RAY = 10 ** 27;\n\n    // Internal functions\n\n    function mul(uint x, uint y) internal pure returns (uint z) {\n        require(y == 0 || (z = x * y) / y == x, \"mul-overflow\");\n    }\n\n    // Public functions\n\n    function daiJoin_join(address apt, address urn, uint wad) public {\n        // DAI is already in SwapActions contract as it was flashloaned to us\n        // DaiJoinLike(apt).dai().transferFrom(msg.sender, address(this), wad);\n        // Approves adapter to take the DAI amount\n        DaiJoinLike(apt).dai().approve(apt, wad);\n        // Joins DAI into the vat\n        DaiJoinLike(apt).join(urn, wad);\n    }\n}",
  "sourcePath": "/Users/david/Documents/Documents - David’s MacBook Pro/GitHub/CollateralSwapTruffle/contracts/maker/Common.sol",
  "compiler": {
    "name": "solc",
    "version": "0.5.16+commit.9c3226ce.Emscripten.clang"
  },
  "schemaVersion": "3.0.22",
  "updatedAt": "2020-02-05T10:59:54.208Z",
  "devdoc": {
    "methods": {}
  },
  "userdoc": {
    "methods": {}
  }
}