{
  "contractName": "SwapActions",
  "abi": [
    {
      "anonymous": false,
      "inputs": [
        {
          "indexed": false,
          "internalType": "address",
          "name": "cdpOwner",
          "type": "address"
        },
        {
          "indexed": false,
          "internalType": "uint256",
          "name": "oldCdpId",
          "type": "uint256"
        },
        {
          "indexed": false,
          "internalType": "uint256",
          "name": "newCdpId",
          "type": "uint256"
        },
        {
          "indexed": false,
          "internalType": "uint256",
          "name": "oldCollAmt",
          "type": "uint256"
        },
        {
          "indexed": false,
          "internalType": "address",
          "name": "oldCollAddress",
          "type": "address"
        },
        {
          "indexed": false,
          "internalType": "uint256",
          "name": "newCollAmt",
          "type": "uint256"
        },
        {
          "indexed": false,
          "internalType": "address",
          "name": "newCollAddress",
          "type": "address"
        }
      ],
      "name": "Swapped",
      "type": "event"
    },
    {
      "payable": true,
      "stateMutability": "payable",
      "type": "fallback"
    },
    {
      "constant": true,
      "inputs": [],
      "name": "addressesProvider",
      "outputs": [
        {
          "internalType": "contract ILendingPoolAddressesProvider",
          "name": "",
          "type": "address"
        }
      ],
      "payable": false,
      "stateMutability": "view",
      "type": "function"
    },
    {
      "constant": false,
      "inputs": [
        {
          "internalType": "address",
          "name": "apt",
          "type": "address"
        },
        {
          "internalType": "address",
          "name": "urn",
          "type": "address"
        },
        {
          "internalType": "uint256",
          "name": "wad",
          "type": "uint256"
        }
      ],
      "name": "daiJoin_join",
      "outputs": [],
      "payable": false,
      "stateMutability": "nonpayable",
      "type": "function"
    },
    {
      "constant": true,
      "inputs": [],
      "name": "dlabsAddress",
      "outputs": [
        {
          "internalType": "address",
          "name": "",
          "type": "address"
        }
      ],
      "payable": false,
      "stateMutability": "view",
      "type": "function"
    },
    {
      "constant": false,
      "inputs": [
        {
          "internalType": "address",
          "name": "_reserve",
          "type": "address"
        },
        {
          "internalType": "uint256",
          "name": "_amount",
          "type": "uint256"
        },
        {
          "internalType": "uint256",
          "name": "_fee",
          "type": "uint256"
        },
        {
          "internalType": "bytes",
          "name": "_params",
          "type": "bytes"
        }
      ],
      "name": "executeOperation",
      "outputs": [],
      "payable": false,
      "stateMutability": "nonpayable",
      "type": "function"
    },
    {
      "constant": false,
      "inputs": [
        {
          "internalType": "address",
          "name": "cdpManager",
          "type": "address"
        },
        {
          "internalType": "address",
          "name": "swapContract",
          "type": "address"
        },
        {
          "internalType": "address",
          "name": "borrowAssetAddress",
          "type": "address"
        },
        {
          "internalType": "uint256",
          "name": "cdp",
          "type": "uint256"
        },
        {
          "internalType": "bytes",
          "name": "data",
          "type": "bytes"
        }
      ],
      "name": "swapCollateral",
      "outputs": [],
      "payable": false,
      "stateMutability": "nonpayable",
      "type": "function"
    },
    {
      "constant": true,
      "inputs": [
        {
          "internalType": "address",
          "name": "cdpManager",
          "type": "address"
        },
        {
          "internalType": "uint256",
          "name": "cdp",
          "type": "uint256"
        }
      ],
      "name": "getCDPInfo",
      "outputs": [
        {
          "internalType": "uint256",
          "name": "debt",
          "type": "uint256"
        },
        {
          "internalType": "address",
          "name": "owner",
          "type": "address"
        }
      ],
      "payable": false,
      "stateMutability": "view",
      "type": "function"
    }
  ],
  "bytecode": "0x60806040527324a42fd28c976a61df5d00d0599c34c4f90748c86000806101000a81548173ffffffffffffffffffffffffffffffffffffffff021916908373ffffffffffffffffffffffffffffffffffffffff16021790555073a8e36b688ec3741e18d4f9f3afbfa7f0f9f0662a600160006101000a81548173ffffffffffffffffffffffffffffffffffffffff021916908373ffffffffffffffffffffffffffffffffffffffff1602179055503480156100b957600080fd5b50613965806100c96000396000f3fe6080604052600436106100555760003560e01c80631f2a63a0146100575780633277bf49146101895780638379833b1461022b578063c56167c614610282578063c72c4d10146102fd578063ee87255814610354575b005b34801561006357600080fd5b50610187600480360360a081101561007a57600080fd5b81019080803573ffffffffffffffffffffffffffffffffffffffff169060200190929190803573ffffffffffffffffffffffffffffffffffffffff169060200190929190803573ffffffffffffffffffffffffffffffffffffffff169060200190929190803590602001909291908035906020019064010000000081111561010157600080fd5b82018360208201111561011357600080fd5b8035906020019184600183028401116401000000008311171561013557600080fd5b91908080601f016020809104026020016040519081016040528093929190818152602001838380828437600081840152601f19601f82011690508083019250505050505050919291929050505061040e565b005b34801561019557600080fd5b506101e2600480360360408110156101ac57600080fd5b81019080803573ffffffffffffffffffffffffffffffffffffffff1690602001909291908035906020019092919050505061060b565b604051808381526020018273ffffffffffffffffffffffffffffffffffffffff1673ffffffffffffffffffffffffffffffffffffffff1681526020019250505060405180910390f35b34801561023757600080fd5b506102406106af565b604051808273ffffffffffffffffffffffffffffffffffffffff1673ffffffffffffffffffffffffffffffffffffffff16815260200191505060405180910390f35b34801561028e57600080fd5b506102fb600480360360608110156102a557600080fd5b81019080803573ffffffffffffffffffffffffffffffffffffffff169060200190929190803573ffffffffffffffffffffffffffffffffffffffff169060200190929190803590602001909291905050506106d5565b005b34801561030957600080fd5b5061031261089a565b604051808273ffffffffffffffffffffffffffffffffffffffff1673ffffffffffffffffffffffffffffffffffffffff16815260200191505060405180910390f35b34801561036057600080fd5b5061040c6004803603608081101561037757600080fd5b81019080803573ffffffffffffffffffffffffffffffffffffffff1690602001909291908035906020019092919080359060200190929190803590602001906401000000008111156103c857600080fd5b8201836020820111156103da57600080fd5b803590602001918460018302840111640100000000831117156103fc57600080fd5b90919293919293905050506108bf565b005b61041b8583866001610cde565b60006104278684610d8b565b905060007324a42fd28c976a61df5d00d0599c34c4f90748c873ffffffffffffffffffffffffffffffffffffffff16630261bf8b6040518163ffffffff1660e01b815260040160206040518083038186803b15801561048557600080fd5b505afa158015610499573d6000803e3d6000fd5b505050506040513d60208110156104af57600080fd5b810190808051906020019092919050505090508073ffffffffffffffffffffffffffffffffffffffff16635cffe9de878785876040518563ffffffff1660e01b8152600401808573ffffffffffffffffffffffffffffffffffffffff1673ffffffffffffffffffffffffffffffffffffffff1681526020018473ffffffffffffffffffffffffffffffffffffffff1673ffffffffffffffffffffffffffffffffffffffff16815260200183815260200180602001828103825283818151815260200191508051906020019080838360005b8381101561059b578082015181840152602081019050610580565b50505050905090810190601f1680156105c85780820380516001836020036101000a031916815260200191505b5095505050505050600060405180830381600087803b1580156105ea57600080fd5b505af11580156105fe573d6000803e3d6000fd5b5050505050505050505050565b6000806106188484610d8b565b91508373ffffffffffffffffffffffffffffffffffffffff16638161b120846040518263ffffffff1660e01b81526004018082815260200191505060206040518083038186803b15801561066b57600080fd5b505afa15801561067f573d6000803e3d6000fd5b505050506040513d602081101561069557600080fd5b810190808051906020019092919050505090509250929050565b600160009054906101000a900473ffffffffffffffffffffffffffffffffffffffff1681565b8273ffffffffffffffffffffffffffffffffffffffff1663f4b9fa756040518163ffffffff1660e01b8152600401602060405180830381600087803b15801561071d57600080fd5b505af1158015610731573d6000803e3d6000fd5b505050506040513d602081101561074757600080fd5b810190808051906020019092919050505073ffffffffffffffffffffffffffffffffffffffff1663095ea7b384836040518363ffffffff1660e01b8152600401808373ffffffffffffffffffffffffffffffffffffffff1673ffffffffffffffffffffffffffffffffffffffff16815260200182815260200192505050600060405180830381600087803b1580156107de57600080fd5b505af11580156107f2573d6000803e3d6000fd5b505050508273ffffffffffffffffffffffffffffffffffffffff16633b4da69f83836040518363ffffffff1660e01b8152600401808373ffffffffffffffffffffffffffffffffffffffff1673ffffffffffffffffffffffffffffffffffffffff16815260200182815260200192505050600060405180830381600087803b15801561087d57600080fd5b505af1158015610891573d6000803e3d6000fd5b50505050505050565b6000809054906101000a900473ffffffffffffffffffffffffffffffffffffffff1681565b6108c93086610fd9565b841115610921576040517f08c379a000000000000000000000000000000000000000000000000000000000815260040180806020018281038252602e815260200180613903602e913960400191505060405180910390fd5b6109296137fc565b61097683838080601f016020809104026020016040519081016040528093929190818152602001838380828437600081840152601f19601f820116905080830192505050505050506110f6565b9050600061098d858761138a90919063ffffffff16565b905060006109a560028761141290919063ffffffff16565b905060008060006109b461145c565b73ffffffffffffffffffffffffffffffffffffffff16866040015173ffffffffffffffffffffffffffffffffffffffff161415610a5757610a0786608001518760e001518860c001518960200151611478565b9250610a178660600151846117e8565b9150610a5086608001518761010001518860a001518960c001518a610120015187610a4b8b8d61138a90919063ffffffff16565b611964565b9050610abf565b610a7386608001518760a001518860c001518960200151611cff565b9250610a8386604001518461214d565b9150610abc86608001518761010001518860e001518960c001518a610120015187610ab78b8d61138a90919063ffffffff16565b6121ff565b90505b610ad286608001518288600001516125a3565b610ae786608001518760200151306000610cde565b610af18b86612647565b8a73ffffffffffffffffffffffffffffffffffffffff1663a9059cbb600160009054906101000a900473ffffffffffffffffffffffffffffffffffffffff16866040518363ffffffff1660e01b8152600401808373ffffffffffffffffffffffffffffffffffffffff1673ffffffffffffffffffffffffffffffffffffffff16815260200182815260200192505050602060405180830381600087803b158015610b9a57600080fd5b505af1158015610bae573d6000803e3d6000fd5b505050506040513d6020811015610bc457600080fd5b8101908080519060200190929190505050507fcbb300f99da16f0f4d1acf85192dacce18e5d86f72769c163694db02ec75e1db8660000151876020015183868a60600151878c60400151604051808873ffffffffffffffffffffffffffffffffffffffff1673ffffffffffffffffffffffffffffffffffffffff1681526020018781526020018681526020018581526020018473ffffffffffffffffffffffffffffffffffffffff1673ffffffffffffffffffffffffffffffffffffffff1681526020018381526020018273ffffffffffffffffffffffffffffffffffffffff1673ffffffffffffffffffffffffffffffffffffffff16815260200197505050505050505060405180910390a15050505050505050505050565b8373ffffffffffffffffffffffffffffffffffffffff16630b63fb628484846040518463ffffffff1660e01b8152600401808481526020018373ffffffffffffffffffffffffffffffffffffffff1673ffffffffffffffffffffffffffffffffffffffff1681526020018281526020019350505050600060405180830381600087803b158015610d6d57600080fd5b505af1158015610d81573d6000803e3d6000fd5b5050505050505050565b6000808373ffffffffffffffffffffffffffffffffffffffff166336569e776040518163ffffffff1660e01b815260040160206040518083038186803b158015610dd457600080fd5b505afa158015610de8573d6000803e3d6000fd5b505050506040513d6020811015610dfe57600080fd5b8101908080519060200190929190505050905060008473ffffffffffffffffffffffffffffffffffffffff16632726b073856040518263ffffffff1660e01b81526004018082815260200191505060206040518083038186803b158015610e6457600080fd5b505afa158015610e78573d6000803e3d6000fd5b505050506040513d6020811015610e8e57600080fd5b8101908080519060200190929190505050905060008573ffffffffffffffffffffffffffffffffffffffff16632c2cb9fd866040518263ffffffff1660e01b81526004018082815260200191505060206040518083038186803b158015610ef457600080fd5b505afa158015610f08573d6000803e3d6000fd5b505050506040513d6020811015610f1e57600080fd5b8101908080519060200190929190505050905060008673ffffffffffffffffffffffffffffffffffffffff16638161b120876040518263ffffffff1660e01b81526004018082815260200191505060206040518083038186803b158015610f8457600080fd5b505afa158015610f98573d6000803e3d6000fd5b505050506040513d6020811015610fae57600080fd5b81019080805190602001909291905050509050610fcd848285856126fd565b94505050505092915050565b6000610fe361145c565b73ffffffffffffffffffffffffffffffffffffffff168273ffffffffffffffffffffffffffffffffffffffff161415611035578273ffffffffffffffffffffffffffffffffffffffff163190506110f0565b8173ffffffffffffffffffffffffffffffffffffffff166370a08231846040518263ffffffff1660e01b8152600401808273ffffffffffffffffffffffffffffffffffffffff1673ffffffffffffffffffffffffffffffffffffffff16815260200191505060206040518083038186803b1580156110b257600080fd5b505afa1580156110c6573d6000803e3d6000fd5b505050506040513d60208110156110dc57600080fd5b810190808051906020019092919050505090505b92915050565b6110fe6137fc565b6000806000806000806000806000808b80602001905161014081101561112357600080fd5b81019080805190602001909291908051906020019092919080519060200190929190805190602001909291908051906020019092919080519060200190929190805190602001909291908051906020019092919080519060200190929190805190602001909291905050509950995099509950995099509950995099509950898b6000019073ffffffffffffffffffffffffffffffffffffffff16908173ffffffffffffffffffffffffffffffffffffffff1681525050888b6020018181525050878b6040019073ffffffffffffffffffffffffffffffffffffffff16908173ffffffffffffffffffffffffffffffffffffffff1681525050868b6060019073ffffffffffffffffffffffffffffffffffffffff16908173ffffffffffffffffffffffffffffffffffffffff1681525050858b6080019073ffffffffffffffffffffffffffffffffffffffff16908173ffffffffffffffffffffffffffffffffffffffff1681525050848b60a0019073ffffffffffffffffffffffffffffffffffffffff16908173ffffffffffffffffffffffffffffffffffffffff1681525050838b60c0019073ffffffffffffffffffffffffffffffffffffffff16908173ffffffffffffffffffffffffffffffffffffffff1681525050828b60e0019073ffffffffffffffffffffffffffffffffffffffff16908173ffffffffffffffffffffffffffffffffffffffff1681525050818b610100019073ffffffffffffffffffffffffffffffffffffffff16908173ffffffffffffffffffffffffffffffffffffffff1681525050808b6101200181815250508a9a5050505050505050505050919050565b600080828401905083811015611408576040517f08c379a000000000000000000000000000000000000000000000000000000000815260040180806020018281038252601b8152602001807f536166654d6174683a206164646974696f6e206f766572666c6f77000000000081525060200191505060405180910390fd5b8091505092915050565b600061145483836040518060400160405280601a81526020017f536166654d6174683a206469766973696f6e206279207a65726f0000000000008152506129a8565b905092915050565b600073eeeeeeeeeeeeeeeeeeeeeeeeeeeeeeeeeeeeeeee905090565b6000808573ffffffffffffffffffffffffffffffffffffffff166336569e776040518163ffffffff1660e01b815260040160206040518083038186803b1580156114c157600080fd5b505afa1580156114d5573d6000803e3d6000fd5b505050506040513d60208110156114eb57600080fd5b8101908080519060200190929190505050905060008673ffffffffffffffffffffffffffffffffffffffff16632726b073856040518263ffffffff1660e01b81526004018082815260200191505060206040518083038186803b15801561155157600080fd5b505afa158015611565573d6000803e3d6000fd5b505050506040513d602081101561157b57600080fd5b8101908080519060200190929190505050905060008773ffffffffffffffffffffffffffffffffffffffff16632c2cb9fd866040518263ffffffff1660e01b81526004018082815260200191505060206040518083038186803b1580156115e157600080fd5b505afa1580156115f5573d6000803e3d6000fd5b505050506040513d602081101561160b57600080fd5b810190808051906020019092919050505090506000808473ffffffffffffffffffffffffffffffffffffffff16632424be5c84866040518363ffffffff1660e01b8152600401808381526020018273ffffffffffffffffffffffffffffffffffffffff1673ffffffffffffffffffffffffffffffffffffffff16815260200192505050604080518083038186803b1580156116a557600080fd5b505afa1580156116b9573d6000803e3d6000fd5b505050506040513d60408110156116cf57600080fd5b8101908080519060200190929190805190602001909291905050509150915061170488856116ff888889896126fd565b6106d5565b60006117108a84612a6e565b905061172c8b8961172084612b0a565b60000385600003612b8b565b6117388b893084612c0c565b8973ffffffffffffffffffffffffffffffffffffffff1663ef693bed30856040518363ffffffff1660e01b8152600401808373ffffffffffffffffffffffffffffffffffffffff1673ffffffffffffffffffffffffffffffffffffffff16815260200182815260200192505050600060405180830381600087803b1580156117bf57600080fd5b505af11580156117d3573d6000803e3d6000fd5b50505050829650505050505050949350505050565b6000806117f484612cb9565b90508373ffffffffffffffffffffffffffffffffffffffff1663095ea7b382856040518363ffffffff1660e01b8152600401808373ffffffffffffffffffffffffffffffffffffffff1673ffffffffffffffffffffffffffffffffffffffff16815260200182815260200192505050602060405180830381600087803b15801561187d57600080fd5b505af1158015611891573d6000803e3d6000fd5b505050506040513d60208110156118a757600080fd5b8101908080519060200190929190505050508073ffffffffffffffffffffffffffffffffffffffff166395e3c50b846001603c42016040518463ffffffff1660e01b8152600401808481526020018381526020018281526020019350505050602060405180830381600087803b15801561192057600080fd5b505af1158015611934573d6000803e3d6000fd5b505050506040513d602081101561194a57600080fd5b810190808051906020019092919050505091505092915050565b6000611971888530612d93565b905060008873ffffffffffffffffffffffffffffffffffffffff16632726b073836040518263ffffffff1660e01b81526004018082815260200191505060206040518083038186803b1580156119c657600080fd5b505afa1580156119da573d6000803e3d6000fd5b505050506040513d60208110156119f057600080fd5b8101908080519060200190929190505050905060008973ffffffffffffffffffffffffffffffffffffffff166336569e776040518163ffffffff1660e01b815260040160206040518083038186803b158015611a4b57600080fd5b505afa158015611a5f573d6000803e3d6000fd5b505050506040513d6020811015611a7557600080fd5b81019080805190602001909291905050509050611a93888387612e60565b611ab38a84611aa188612b0a565b611aae858e888d8c613108565b612b8b565b611ac78a8430611ac2886132e4565b613303565b60008173ffffffffffffffffffffffffffffffffffffffff16634538c4eb308a6040518363ffffffff1660e01b8152600401808373ffffffffffffffffffffffffffffffffffffffff1673ffffffffffffffffffffffffffffffffffffffff1681526020018273ffffffffffffffffffffffffffffffffffffffff1673ffffffffffffffffffffffffffffffffffffffff1681526020019250505060206040518083038186803b158015611b7a57600080fd5b505afa158015611b8e573d6000803e3d6000fd5b505050506040513d6020811015611ba457600080fd5b81019080805190602001909291905050501415611c53578073ffffffffffffffffffffffffffffffffffffffff1663a3b22fc4886040518263ffffffff1660e01b8152600401808273ffffffffffffffffffffffffffffffffffffffff1673ffffffffffffffffffffffffffffffffffffffff168152602001915050600060405180830381600087803b158015611c3a57600080fd5b505af1158015611c4e573d6000803e3d6000fd5b505050505b8673ffffffffffffffffffffffffffffffffffffffff1663ef693bed30866040518363ffffffff1660e01b8152600401808373ffffffffffffffffffffffffffffffffffffffff1673ffffffffffffffffffffffffffffffffffffffff16815260200182815260200192505050600060405180830381600087803b158015611cda57600080fd5b505af1158015611cee573d6000803e3d6000fd5b505050505050979650505050505050565b6000808573ffffffffffffffffffffffffffffffffffffffff166336569e776040518163ffffffff1660e01b815260040160206040518083038186803b158015611d4857600080fd5b505afa158015611d5c573d6000803e3d6000fd5b505050506040513d6020811015611d7257600080fd5b8101908080519060200190929190505050905060008673ffffffffffffffffffffffffffffffffffffffff16632726b073856040518263ffffffff1660e01b81526004018082815260200191505060206040518083038186803b158015611dd857600080fd5b505afa158015611dec573d6000803e3d6000fd5b505050506040513d6020811015611e0257600080fd5b8101908080519060200190929190505050905060008773ffffffffffffffffffffffffffffffffffffffff16632c2cb9fd866040518263ffffffff1660e01b81526004018082815260200191505060206040518083038186803b158015611e6857600080fd5b505afa158015611e7c573d6000803e3d6000fd5b505050506040513d6020811015611e9257600080fd5b810190808051906020019092919050505090506000808473ffffffffffffffffffffffffffffffffffffffff16632424be5c84866040518363ffffffff1660e01b8152600401808381526020018273ffffffffffffffffffffffffffffffffffffffff1673ffffffffffffffffffffffffffffffffffffffff16815260200192505050604080518083038186803b158015611f2c57600080fd5b505afa158015611f40573d6000803e3d6000fd5b505050506040513d6040811015611f5657600080fd5b81019080805190602001909291908051906020019092919050505091509150611f8b8885611f86888889896126fd565b6106d5565b611fa58a88611f9985612b0a565b60000384600003612b8b565b611fb18a883085612c0c565b8873ffffffffffffffffffffffffffffffffffffffff1663ef693bed30846040518363ffffffff1660e01b8152600401808373ffffffffffffffffffffffffffffffffffffffff1673ffffffffffffffffffffffffffffffffffffffff16815260200182815260200192505050600060405180830381600087803b15801561203857600080fd5b505af115801561204c573d6000803e3d6000fd5b505050508873ffffffffffffffffffffffffffffffffffffffff16637bd2bea76040518163ffffffff1660e01b8152600401602060405180830381600087803b15801561209857600080fd5b505af11580156120ac573d6000803e3d6000fd5b505050506040513d60208110156120c257600080fd5b810190808051906020019092919050505073ffffffffffffffffffffffffffffffffffffffff16632e1a7d4d836040518263ffffffff1660e01b815260040180828152602001915050600060405180830381600087803b15801561212557600080fd5b505af1158015612139573d6000803e3d6000fd5b505050508195505050505050949350505050565b60008061215984612cb9565b90508073ffffffffffffffffffffffffffffffffffffffff1663f39b5b9b846001603c42016040518463ffffffff1660e01b815260040180838152602001828152602001925050506020604051808303818588803b1580156121ba57600080fd5b505af11580156121ce573d6000803e3d6000fd5b50505050506040513d60208110156121e557600080fd5b810190808051906020019092919050505091505092915050565b600061220c888530612d93565b905060008873ffffffffffffffffffffffffffffffffffffffff16632726b073836040518263ffffffff1660e01b81526004018082815260200191505060206040518083038186803b15801561226157600080fd5b505afa158015612275573d6000803e3d6000fd5b505050506040513d602081101561228b57600080fd5b8101908080519060200190929190505050905060008973ffffffffffffffffffffffffffffffffffffffff166336569e776040518163ffffffff1660e01b815260040160206040518083038186803b1580156122e657600080fd5b505afa1580156122fa573d6000803e3d6000fd5b505050506040513d602081101561231057600080fd5b8101908080519060200190929190505050905061232e8883876133b0565b6123578a846123456123408c8a612a6e565b612b0a565b612352858e888d8c613108565b612b8b565b61236b8a8430612366886132e4565b613303565b60008173ffffffffffffffffffffffffffffffffffffffff16634538c4eb308a6040518363ffffffff1660e01b8152600401808373ffffffffffffffffffffffffffffffffffffffff1673ffffffffffffffffffffffffffffffffffffffff1681526020018273ffffffffffffffffffffffffffffffffffffffff1673ffffffffffffffffffffffffffffffffffffffff1681526020019250505060206040518083038186803b15801561241e57600080fd5b505afa158015612432573d6000803e3d6000fd5b505050506040513d602081101561244857600080fd5b810190808051906020019092919050505014156124f7578073ffffffffffffffffffffffffffffffffffffffff1663a3b22fc4886040518263ffffffff1660e01b8152600401808273ffffffffffffffffffffffffffffffffffffffff1673ffffffffffffffffffffffffffffffffffffffff168152602001915050600060405180830381600087803b1580156124de57600080fd5b505af11580156124f2573d6000803e3d6000fd5b505050505b8673ffffffffffffffffffffffffffffffffffffffff1663ef693bed30866040518363ffffffff1660e01b8152600401808373ffffffffffffffffffffffffffffffffffffffff1673ffffffffffffffffffffffffffffffffffffffff16815260200182815260200192505050600060405180830381600087803b15801561257e57600080fd5b505af1158015612592573d6000803e3d6000fd5b505050505050979650505050505050565b8273ffffffffffffffffffffffffffffffffffffffff1663fcafcc6883836040518363ffffffff1660e01b8152600401808381526020018273ffffffffffffffffffffffffffffffffffffffff1673ffffffffffffffffffffffffffffffffffffffff16815260200192505050600060405180830381600087803b15801561262a57600080fd5b505af115801561263e573d6000803e3d6000fd5b50505050505050565b60008060009054906101000a900473ffffffffffffffffffffffffffffffffffffffff1673ffffffffffffffffffffffffffffffffffffffff1663ed6ff7606040518163ffffffff1660e01b815260040160206040518083038186803b1580156126b057600080fd5b505afa1580156126c4573d6000803e3d6000fd5b505050506040513d60208110156126da57600080fd5b810190808051906020019092919050505090506126f8818484613575565b505050565b6000808573ffffffffffffffffffffffffffffffffffffffff1663d9638d36846040518263ffffffff1660e01b81526004018082815260200191505060a06040518083038186803b15801561275157600080fd5b505afa158015612765573d6000803e3d6000fd5b505050506040513d60a081101561277b57600080fd5b81019080805190602001909291908051906020019092919080519060200190929190805190602001909291908051906020019092919050505050505091505060008673ffffffffffffffffffffffffffffffffffffffff16632424be5c85876040518363ffffffff1660e01b8152600401808381526020018273ffffffffffffffffffffffffffffffffffffffff1673ffffffffffffffffffffffffffffffffffffffff16815260200192505050604080518083038186803b15801561284057600080fd5b505afa158015612854573d6000803e3d6000fd5b505050506040513d604081101561286a57600080fd5b81019080805190602001909291908051906020019092919050505091505060008773ffffffffffffffffffffffffffffffffffffffff16636c25b346886040518263ffffffff1660e01b8152600401808273ffffffffffffffffffffffffffffffffffffffff1673ffffffffffffffffffffffffffffffffffffffff16815260200191505060206040518083038186803b15801561290757600080fd5b505afa15801561291b573d6000803e3d6000fd5b505050506040513d602081101561293157600080fd5b81019080805190602001909291905050509050600061295961295384866136e4565b83613779565b90506b033b2e3c9fd0803ce8000000818161297057fe5b0494508061298a866b033b2e3c9fd0803ce80000006136e4565b10612995578461299a565b600185015b945050505050949350505050565b60008083118290612a54576040517f08c379a00000000000000000000000000000000000000000000000000000000081526004018080602001828103825283818151815260200191508051906020019080838360005b83811015612a195780820151818401526020810190506129fe565b50505050905090810190601f168015612a465780820380516001836020036101000a031916815260200191505b509250505060405180910390fd5b506000838581612a6057fe5b049050809150509392505050565b6000612b02828473ffffffffffffffffffffffffffffffffffffffff1663b3bcfa826040518163ffffffff1660e01b8152600401602060405180830381600087803b158015612abc57600080fd5b505af1158015612ad0573d6000803e3d6000fd5b505050506040513d6020811015612ae657600080fd5b8101908080519060200190929190505050601203600a0a6136e4565b905092915050565b60008190506000811215612b86576040517f08c379a000000000000000000000000000000000000000000000000000000000815260040180806020018281038252600c8152602001807f696e742d6f766572666c6f77000000000000000000000000000000000000000081525060200191505060405180910390fd5b919050565b8373ffffffffffffffffffffffffffffffffffffffff166345e6bdcd8484846040518463ffffffff1660e01b8152600401808481526020018381526020018281526020019350505050600060405180830381600087803b158015612bee57600080fd5b505af1158015612c02573d6000803e3d6000fd5b5050505050505050565b8373ffffffffffffffffffffffffffffffffffffffff16639bb8f8388484846040518463ffffffff1660e01b8152600401808481526020018373ffffffffffffffffffffffffffffffffffffffff1673ffffffffffffffffffffffffffffffffffffffff1681526020018281526020019350505050600060405180830381600087803b158015612c9b57600080fd5b505af1158015612caf573d6000803e3d6000fd5b5050505050505050565b60008073c0a47dfe034b400b47bdad5fecda2621de6c4d9590508073ffffffffffffffffffffffffffffffffffffffff166306f2bf62846040518263ffffffff1660e01b8152600401808273ffffffffffffffffffffffffffffffffffffffff1673ffffffffffffffffffffffffffffffffffffffff16815260200191505060206040518083038186803b158015612d5057600080fd5b505afa158015612d64573d6000803e3d6000fd5b505050506040513d6020811015612d7a57600080fd5b8101908080519060200190929190505050915050919050565b60008373ffffffffffffffffffffffffffffffffffffffff16636090dec584846040518363ffffffff1660e01b8152600401808381526020018273ffffffffffffffffffffffffffffffffffffffff1673ffffffffffffffffffffffffffffffffffffffff16815260200192505050602060405180830381600087803b158015612e1c57600080fd5b505af1158015612e30573d6000803e3d6000fd5b505050506040513d6020811015612e4657600080fd5b810190808051906020019092919050505090509392505050565b8273ffffffffffffffffffffffffffffffffffffffff16637bd2bea76040518163ffffffff1660e01b8152600401602060405180830381600087803b158015612ea857600080fd5b505af1158015612ebc573d6000803e3d6000fd5b505050506040513d6020811015612ed257600080fd5b810190808051906020019092919050505073ffffffffffffffffffffffffffffffffffffffff1663d0e30db0826040518263ffffffff1660e01b81526004016000604051808303818588803b158015612f2a57600080fd5b505af1158015612f3e573d6000803e3d6000fd5b50505050508273ffffffffffffffffffffffffffffffffffffffff16637bd2bea76040518163ffffffff1660e01b8152600401602060405180830381600087803b158015612f8b57600080fd5b505af1158015612f9f573d6000803e3d6000fd5b505050506040513d6020811015612fb557600080fd5b810190808051906020019092919050505073ffffffffffffffffffffffffffffffffffffffff1663095ea7b384836040518363ffffffff1660e01b8152600401808373ffffffffffffffffffffffffffffffffffffffff1673ffffffffffffffffffffffffffffffffffffffff16815260200182815260200192505050600060405180830381600087803b15801561304c57600080fd5b505af1158015613060573d6000803e3d6000fd5b505050508273ffffffffffffffffffffffffffffffffffffffff16633b4da69f83836040518363ffffffff1660e01b8152600401808373ffffffffffffffffffffffffffffffffffffffff1673ffffffffffffffffffffffffffffffffffffffff16815260200182815260200192505050600060405180830381600087803b1580156130eb57600080fd5b505af11580156130ff573d6000803e3d6000fd5b50505050505050565b6000808573ffffffffffffffffffffffffffffffffffffffff166344e2a5a8856040518263ffffffff1660e01b815260040180828152602001915050602060405180830381600087803b15801561315e57600080fd5b505af1158015613172573d6000803e3d6000fd5b505050506040513d602081101561318857600080fd5b8101908080519060200190929190505050905060008773ffffffffffffffffffffffffffffffffffffffff16636c25b346876040518263ffffffff1660e01b8152600401808273ffffffffffffffffffffffffffffffffffffffff1673ffffffffffffffffffffffffffffffffffffffff16815260200191505060206040518083038186803b15801561321a57600080fd5b505afa15801561322e573d6000803e3d6000fd5b505050506040513d602081101561324457600080fd5b8101908080519060200190929190505050905061326d846b033b2e3c9fd0803ce80000006136e4565b8110156132d9576132a482613297613291876b033b2e3c9fd0803ce80000006136e4565b84613779565b8161329e57fe5b04612b0a565b92506132bc846b033b2e3c9fd0803ce80000006136e4565b6132c684846136e4565b106132d157826132d6565b600183015b92505b505095945050505050565b60006132fc826b033b2e3c9fd0803ce80000006136e4565b9050919050565b8373ffffffffffffffffffffffffffffffffffffffff1663f9f30db68484846040518463ffffffff1660e01b8152600401808481526020018373ffffffffffffffffffffffffffffffffffffffff1673ffffffffffffffffffffffffffffffffffffffff1681526020018281526020019350505050600060405180830381600087803b15801561339257600080fd5b505af11580156133a6573d6000803e3d6000fd5b5050505050505050565b8273ffffffffffffffffffffffffffffffffffffffff16637bd2bea76040518163ffffffff1660e01b8152600401602060405180830381600087803b1580156133f857600080fd5b505af115801561340c573d6000803e3d6000fd5b505050506040513d602081101561342257600080fd5b810190808051906020019092919050505073ffffffffffffffffffffffffffffffffffffffff1663095ea7b384836040518363ffffffff1660e01b8152600401808373ffffffffffffffffffffffffffffffffffffffff1673ffffffffffffffffffffffffffffffffffffffff16815260200182815260200192505050600060405180830381600087803b1580156134b957600080fd5b505af11580156134cd573d6000803e3d6000fd5b505050508273ffffffffffffffffffffffffffffffffffffffff16633b4da69f83836040518363ffffffff1660e01b8152600401808373ffffffffffffffffffffffffffffffffffffffff1673ffffffffffffffffffffffffffffffffffffffff16815260200182815260200192505050600060405180830381600087803b15801561355857600080fd5b505af115801561356c573d6000803e3d6000fd5b50505050505050565b61357d61145c565b73ffffffffffffffffffffffffffffffffffffffff168273ffffffffffffffffffffffffffffffffffffffff16141561361b578273ffffffffffffffffffffffffffffffffffffffff168160405180600001905060006040518083038185875af1925050503d806000811461360e576040519150601f19603f3d011682016040523d82523d6000602084013e613613565b606091505b5050506136df565b8173ffffffffffffffffffffffffffffffffffffffff1663a9059cbb84836040518363ffffffff1660e01b8152600401808373ffffffffffffffffffffffffffffffffffffffff1673ffffffffffffffffffffffffffffffffffffffff16815260200182815260200192505050602060405180830381600087803b1580156136a257600080fd5b505af11580156136b6573d6000803e3d6000fd5b505050506040513d60208110156136cc57600080fd5b8101908080519060200190929190505050505b505050565b60008082148061370157508282838502925082816136fe57fe5b04145b613773576040517f08c379a000000000000000000000000000000000000000000000000000000000815260040180806020018281038252600c8152602001807f6d756c2d6f766572666c6f77000000000000000000000000000000000000000081525060200191505060405180910390fd5b92915050565b60008282840391508111156137f6576040517f08c379a000000000000000000000000000000000000000000000000000000000815260040180806020018281038252600c8152602001807f7375622d6f766572666c6f77000000000000000000000000000000000000000081525060200191505060405180910390fd5b92915050565b604051806101400160405280600073ffffffffffffffffffffffffffffffffffffffff16815260200160008152602001600073ffffffffffffffffffffffffffffffffffffffff168152602001600073ffffffffffffffffffffffffffffffffffffffff168152602001600073ffffffffffffffffffffffffffffffffffffffff168152602001600073ffffffffffffffffffffffffffffffffffffffff168152602001600073ffffffffffffffffffffffffffffffffffffffff168152602001600073ffffffffffffffffffffffffffffffffffffffff168152602001600073ffffffffffffffffffffffffffffffffffffffff16815260200160008019168152509056fe496e76616c69642062616c616e63652c207761732074686520666c6173684c6f616e207375636365737366756c3fa265627a7a72315820d14116c3aea86123fe8a79375edc9629b9d5157934a7bfac97e3c007c7c01bc764736f6c63430005100032",
  "source": "pragma solidity ^0.5.15;\n\n// Maker\nimport \"./maker/Common.sol\";\nimport \"./maker/GemJoinLike.sol\";\nimport \"./maker/JugLike.sol\";\nimport \"./maker/ManagerLike.sol\";\nimport \"./maker/VatLike.sol\";\n\n// Aave\nimport \"./aave/FlashLoanReceiverBase.sol\";\nimport \"./aave/ILendingPoolAddressesProvider.sol\";\nimport \"./aave/ILendingPool.sol\";\n\n// Uniswap\nimport \"./Uniswap/IUniswapExchange.sol\";\nimport \"./Uniswap/IUniswapFactory.sol\";\n\ncontract SwapActions is Common, FlashLoanReceiverBase {\n\n    using SafeMath for uint256;\n\n    address public dlabsAddress = 0xA8e36b688eC3741e18D4F9f3AFBFA7f0F9f0662A;\n\n    // Events\n\n    event Swapped(\n        address cdpOwner,\n        uint oldCdpId,\n        uint newCdpId,\n        uint oldCollAmt,\n        address oldCollAddress,\n        uint newCollAmt,\n        address newCollAddress\n    );\n\n    // STRUCTs\n    struct CalldataVars {\n        address usrProxy;\n        uint cdpId;\n        address newCollateralAddress;\n        address oldCollateralAddress;\n        address cdpManager;\n        address ethJoin;\n        address daiJoin;\n        address gemJoin;\n        address jug;\n        bytes32 ilk;\n    }\n\n    // Needs to be payable to accept ETH for flashloaning ETH\n    function() external payable { }\n\n    // INTERNAL - Pure\n\n    function sub(uint x, uint y) internal pure returns (uint z) {\n        require((z = x - y) <= x, \"sub-overflow\");\n    }\n\n    function toInt(uint x) internal pure returns (int y) {\n        y = int(x);\n        require(y >= 0, \"int-overflow\");\n    }\n\n    function toRad(uint wad) internal pure returns (uint rad) {\n        rad = mul(wad, 10 ** 27);\n    }\n\n    // A hacky way to avoid 'Stack too deep' errors\n    function _decode(bytes memory params) internal pure returns (CalldataVars memory vars) {\n        (address usrProxy, uint cdpId, address newCollateralAddress, address oldCollateralAddress, address cdpManager, address ethJoin, address daiJoin, address gemJoin, address jug, bytes32 ilk) = abi.decode(params, (address, uint, address, address, address, address, address, address, address, bytes32));\n        vars.usrProxy = usrProxy;\n        vars.cdpId = cdpId;\n        vars.newCollateralAddress = newCollateralAddress;\n        vars.oldCollateralAddress = oldCollateralAddress;\n        vars.cdpManager = cdpManager;\n        vars.ethJoin = ethJoin;\n        vars.daiJoin = daiJoin;\n        vars.gemJoin = gemJoin;\n        vars.jug = jug;\n        vars.ilk = ilk;\n\n        return vars;\n    }\n\n    // INTERNAL - MKR\n\n    function _convertTo18(address gemJoin, uint256 amt) internal returns (uint256 wad) {\n        // For those collaterals that have less than 18 decimals precision we need to do the conversion before passing to frob function\n        // Adapters will automatically handle the difference of precision\n        wad = mul(\n            amt,\n            10 ** (18 - GemJoinLike(gemJoin).dec())\n        );\n    }\n\n    function _cdpAllow(\n        address manager,\n        uint cdp,\n        address usr,\n        uint ok\n    ) internal {\n        ManagerLike(manager).cdpAllow(cdp, usr, ok);\n    }\n\n    function _ethJoin_join(address apt, address urn, uint wadC) internal {\n        // Wraps ETH in WETH\n        GemJoinLike(apt).gem().deposit.value(wadC)();\n        // Approves adapter to take the WETH amount\n        GemJoinLike(apt).gem().approve(address(apt), wadC);\n        // Joins WETH collateral into the vat\n        GemJoinLike(apt).join(urn, wadC);\n    }\n\n    function _flux(\n        address manager,\n        uint cdp,\n        address dst,\n        uint wad\n    ) internal {\n        ManagerLike(manager).flux(cdp, dst, wad);\n    }\n\n    function _frob(\n        address manager,\n        uint cdp,\n        int dink,\n        int dart\n    ) internal {\n        ManagerLike(manager).frob(cdp, dink, dart);\n    }\n\n    function _gemJoin_join(address apt, address urn, uint wad) internal {\n        // Approves adapter to take the token amount\n        GemJoinLike(apt).gem().approve(apt, wad);\n        // Joins token collateral into the vat\n        GemJoinLike(apt).join(urn, wad);\n    }\n\n    function _getDrawDart(\n        address vat,\n        address jug,\n        address urn,\n        bytes32 ilk,\n        uint wad\n    ) internal returns (int dart) {\n        // Updates stability fee rate\n        uint rate = JugLike(jug).drip(ilk);\n        // Gets DAI balance of the urn in the vat\n        uint dai = VatLike(vat).dai(urn);\n        // If there was already enough DAI in the vat balance, just exits it without adding more debt\n        if (dai < mul(wad, RAY)) {\n            // Calculates the needed dart so together with the existing dai in the vat is enough to exit wad amount of DAI tokens\n            dart = toInt(sub(mul(wad, RAY), dai) / rate);\n            // This is neeeded due lack of precision. It might need to sum an extra dart wei (for the given DAI wad amount)\n            dart = mul(uint(dart), rate) < mul(wad, RAY) ? dart + 1 : dart;\n        }\n    }\n\n    // ink = collateral, art = normalised debt, actual debt = art * rate\n    function _getDebt(\n        address manager,\n        uint cdp\n    )\n        internal\n        view\n        returns (uint debt)\n    {\n        address vat = ManagerLike(manager).vat();\n        address urn = ManagerLike(manager).urns(cdp);\n        bytes32 ilk = ManagerLike(manager).ilks(cdp);\n        address owner = ManagerLike(manager).owns(cdp);\n\n        debt = _getWipeAllWad(vat, owner, urn, ilk);\n    }\n\n    function _getWipeAllWad(\n        address vat,\n        address usr,\n        address urn,\n        bytes32 ilk\n    ) internal view returns (uint wad) {\n        // Gets actual rate from the vat\n        (, uint rate,,,) = VatLike(vat).ilks(ilk);\n        // Gets actual art value of the urn\n        (, uint art) = VatLike(vat).urns(ilk, urn);\n        // Gets actual dai amount in the urn\n        uint dai = VatLike(vat).dai(usr);\n\n        uint rad = sub(mul(art, rate), dai);\n        wad = rad / RAY;\n\n        // If the rad precision has some dust, it will need to request for 1 extra wad wei\n        wad = mul(wad, RAY) < rad ? wad + 1 : wad;\n    }\n\n    function _give(\n        address manager,\n        uint cdp,\n        address usr\n    ) internal {\n        ManagerLike(manager).give(cdp, usr);\n    }\n\n    function _move(\n        address manager,\n        uint cdp,\n        address dst,\n        uint rad\n    ) internal {\n        ManagerLike(manager).move(cdp, dst, rad);\n    }\n\n    function _open(\n        address manager,\n        bytes32 ilk,\n        address usr\n    ) internal returns (uint cdp) {\n        cdp = ManagerLike(manager).open(ilk, usr);\n    }\n\n    // ETH collateral --> Gem collateral\n\n    function _wipeAllAndFreeETH(\n        address manager,\n        address ethJoin,\n        address daiJoin,\n        uint cdp\n    )\n        internal\n        returns (uint)\n    {\n        address vat = ManagerLike(manager).vat();\n        address urn = ManagerLike(manager).urns(cdp);\n        bytes32 ilk = ManagerLike(manager).ilks(cdp);\n        (uint ink, uint art) = VatLike(vat).urns(ilk, urn);\n\n        // Joins DAI amount into the vat\n        daiJoin_join(daiJoin, urn, _getWipeAllWad(vat, urn, urn, ilk));\n        // Paybacks debt to the CDP and unlocks WETH amount from it\n        _frob(\n            manager,\n            cdp,\n            -toInt(ink),\n            -int(art)\n        );\n        // Moves the amount from the CDP urn to proxy's address\n        _flux(manager, cdp, address(this), ink);\n        // Exits WETH amount to proxy address as a token\n        GemJoinLike(ethJoin).exit(address(this), ink);\n        // Converts WETH to ETH\n        GemJoinLike(ethJoin).gem().withdraw(ink);\n        return ink;\n    }\n\n    function _openLockGemAndDraw(\n        address manager,\n        address jug,\n        address gemJoin,\n        address daiJoin,\n        bytes32 ilk,\n        uint wadC,\n        uint wadD\n    )\n        internal\n        returns (uint cdp)\n    {\n        // Open a new CDP\n        cdp = _open(manager, ilk, address(this));\n\n        address urn = ManagerLike(manager).urns(cdp);\n        address vat = ManagerLike(manager).vat();\n        // Takes token amount from user's wallet and joins into the vat\n        _gemJoin_join(gemJoin, urn, wadC);\n        // Locks token amount into the CDP and generates debt\n        _frob(manager, cdp, toInt(_convertTo18(gemJoin, wadC)), _getDrawDart(vat, jug, urn, ilk, wadD));\n        // Moves the DAI amount (balance in the vat in rad) to this address\n        _move(manager, cdp, address(this), toRad(wadD));\n        // Allows adapter to access to proxy's DAI balance in the vat\n        if (VatLike(vat).can(address(this), address(daiJoin)) == 0) {\n            VatLike(vat).hope(daiJoin);\n        }\n        // Exits DAI to the user's wallet as a token\n        DaiJoinLike(daiJoin).exit(address(this), wadD);\n    }\n\n    // Gem collateral --> ETH collateral\n\n    function _wipeAllAndFreeGem(\n        address manager,\n        address gemJoin,\n        address daiJoin,\n        uint cdp\n    ) internal returns (uint) {\n        address vat = ManagerLike(manager).vat();\n        address urn = ManagerLike(manager).urns(cdp);\n        bytes32 ilk = ManagerLike(manager).ilks(cdp);\n        (uint ink, uint art) = VatLike(vat).urns(ilk, urn);\n\n        // Joins DAI amount into the vat\n        daiJoin_join(daiJoin, urn, _getWipeAllWad(vat, urn, urn, ilk));\n        uint wad18 = _convertTo18(gemJoin, ink);\n        // Paybacks debt to the CDP and unlocks token amount from it\n        _frob(\n            manager,\n            cdp,\n            -toInt(wad18),\n            -int(art)\n        );\n        // Moves the amount from the CDP urn to proxy's address\n        _flux(manager, cdp, address(this), wad18);\n        // Exits token amount to the user's wallet as a token\n        GemJoinLike(gemJoin).exit(address(this), ink);\n        return ink;\n    }\n\n    function _openLockETHAndDraw(\n        address manager,\n        address jug,\n        address ethJoin,\n        address daiJoin,\n        bytes32 ilk,\n        uint wadC,\n        uint wadD\n    )\n        internal\n        returns (uint cdp)\n    {\n        cdp = _open(manager, ilk, address(this));\n\n        address urn = ManagerLike(manager).urns(cdp);\n        address vat = ManagerLike(manager).vat();\n        // Receives ETH amount, converts it to WETH and joins it into the vat\n        _ethJoin_join(ethJoin, urn, wadC);\n        // Locks WETH amount into the CDP and generates debt\n        _frob(manager, cdp, toInt(wadC), _getDrawDart(vat, jug, urn, ilk, wadD));\n        // Moves the DAI amount (balance in the vat in rad) to proxy's address\n        _move(manager, cdp, address(this), toRad(wadD));\n        // Allows adapter to access to proxy's DAI balance in the vat\n        if (VatLike(vat).can(address(this), address(daiJoin)) == 0) {\n            VatLike(vat).hope(daiJoin);\n        }\n        // Exits DAI to the user's wallet as a token\n        DaiJoinLike(daiJoin).exit(address(this), wadD);\n    }\n\n    // INTERNAL - Uniswap\n\n    function _getUniswapExchange(address tokenAddress) internal view returns (address exchangeAddress) {\n        IUniswapFactory uniswapFactory = IUniswapFactory(0xc0a47dFe034B400B47bDaD5FecDa2621de6c4d95); // Mainnet address\n        exchangeAddress = uniswapFactory.getExchange(tokenAddress);\n    }\n\n    function _buyTokensWithEthFromUniswap(address tokenAddress, uint ethAmount) internal returns (uint tokensAmount) {\n        IUniswapExchange newGemEx = IUniswapExchange(_getUniswapExchange(tokenAddress));\n        tokensAmount = newGemEx.ethToTokenSwapInput.value(ethAmount)(uint(1), uint(now + 60));\n    }\n\n    function _sellTokensForEthFromUniswap(address tokenAddress, uint tokenAmount) internal returns (uint ethAmount) {\n        IUniswapExchange newGemEx = IUniswapExchange(_getUniswapExchange(tokenAddress));\n        IERC20(tokenAddress).approve(address(newGemEx), tokenAmount);\n        ethAmount = newGemEx.tokenToEthSwapInput(tokenAmount, uint(1), uint(now + 60));\n    }\n\n    // EXTERNAL\n\n    /**\n        Called by Aave's LendingPool.flashLoan() function.\n     */\n    function executeOperation(\n        address _reserve,\n        uint256 _amount,\n        uint256 _fee,\n        bytes calldata _params\n    )\n        external\n    {\n        require(_amount <= getBalanceInternal(address(this), _reserve), \"Invalid balance, was the flashLoan successful?\");\n\n        CalldataVars memory vars = _decode(_params);\n        uint debt = _amount.add(_fee);\n        uint dlabsFeeBps = _fee.div(uint(2));\n\n        uint oldCollateralAmt;\n        uint newCollateralAmt;\n        uint newCdpId;\n\n        // 1. Close the cdp with flashloaned asset amount (now in SwapActions contract)\n        // 2. ... collateral is free, swap collateral (e.g. ETH) on uniswap for desired newCollateral (e.g. BAT)\n        // 3. ... we have newCollateral, open a new CDP with new collateral and draw the debt amount\n\n        if (vars.newCollateralAddress == EthAddressLib.ethAddress()) {\n            oldCollateralAmt = _wipeAllAndFreeGem(vars.cdpManager, vars.gemJoin, vars.daiJoin, vars.cdpId);\n            newCollateralAmt = _sellTokensForEthFromUniswap(vars.oldCollateralAddress, oldCollateralAmt);\n            newCdpId = _openLockETHAndDraw(vars.cdpManager, vars.jug, vars.ethJoin, vars.daiJoin, vars.ilk, newCollateralAmt, debt.add(dlabsFeeBps));\n        } else {\n            oldCollateralAmt = _wipeAllAndFreeETH(vars.cdpManager, vars.ethJoin, vars.daiJoin, vars.cdpId);\n            newCollateralAmt = _buyTokensWithEthFromUniswap(vars.newCollateralAddress, oldCollateralAmt);\n            newCdpId = _openLockGemAndDraw(vars.cdpManager, vars.jug, vars.gemJoin, vars.daiJoin, vars.ilk, newCollateralAmt, debt.add(dlabsFeeBps));\n        }\n\n        // ... TODO: check that it won't be over liquidation price with drawing this debt amount\n\n        // ... give new CDP to user's proxy\n        _give(vars.cdpManager, newCdpId, vars.usrProxy);\n\n        // ... do no evil with old CDP\n        _cdpAllow(vars.cdpManager, vars.cdpId, address(this), 0);\n\n        // ... payback the flashLoan\n        transferFundsBackToPoolInternal(_reserve, debt);\n\n        // ... payout dlabs fee\n        IERC20(_reserve).transfer(dlabsAddress, dlabsFeeBps);\n\n        emit Swapped(vars.usrProxy, vars.cdpId, newCdpId, oldCollateralAmt, vars.oldCollateralAddress, newCollateralAmt, vars.newCollateralAddress);\n    }\n\n    // PUBLIC\n\n    /**\n        `data` should have the following values encoded in this order:\n            [\n                usrProxy,\n                cdpId,\n                newCollateralAddress,\n                oldCollateralAddress,\n                cdpManager,\n                ethJoin,\n                daiJoin,\n                gemJoin,\n                jug,\n                ilk\n            ]\n     */\n    function swapCollateral(\n        address cdpManager,\n        address swapContract,\n        address borrowAssetAddress, // always DAI\n        uint cdp,\n        bytes memory data\n    ) public {\n        // Enable our contract to close the CDP in question\n        _cdpAllow(cdpManager, cdp, swapContract, 1);\n\n        // Get amount of DAI debt for CDP\n        uint debt = _getDebt(cdpManager, cdp);\n\n        // Get the Aave lending pool instance\n        // address lendingPoolAddress = addressesProvider.getLendingPool(); // ???? not working during testing ????\n        ILendingPool lendingPool = ILendingPool(ILendingPoolAddressesProvider(0x24a42fD28C976A61Df5D00D0599C34c4f90748c8).getLendingPool());\n\n        // Perform the flashLoan, lendingPool will call `executeOperation()`\n        lendingPool.flashLoan(swapContract, borrowAssetAddress, debt, data);\n    }\n\n    function getCDPInfo(address cdpManager, uint cdp) public view returns (uint debt, address owner) {\n        debt = _getDebt(cdpManager, cdp);\n        owner = ManagerLike(cdpManager).owns(cdp);\n    }\n}",
  "sourcePath": "/Users/david/Documents/Documents - Davids MacBook Pro/GitHub/CollateralSwapTruffle/contracts/SwapActions.sol",
  "compiler": {
    "name": "solc",
    "version": "0.5.16+commit.9c3226ce.Emscripten.clang"
  },
  "schemaVersion": "3.0.22",
  "updatedAt": "2020-02-05T10:59:54.180Z",
  "devdoc": {
    "methods": {}
  },
  "userdoc": {
    "methods": {
      "executeOperation(address,uint256,uint256,bytes)": {
        "notice": "Called by Aave's LendingPool.flashLoan() function."
      },
      "swapCollateral(address,address,address,uint256,bytes)": {
        "notice": "`data` should have the following values encoded in this order: [ usrProxy, cdpId, newCollateralAddress, oldCollateralAddress, cdpManager, ethJoin, daiJoin, gemJoin, jug, ilk ]"
      }
    }
  }
}